:100000000C942A000C9447000C9447000C94470071
:100010000C9447000C9447000C9447000C94470044
:100020000C9447000C9447000C9447000C94470034
:100030000C9447000C9447000C9447000C94470024
:100040000C9447000C9447000C94BD030C9447009B
:100050000C94470011241FBECFE5D4E0DEBFCDBF16
:1000600010E0A0E6B0E0EAE4F2E102C005900D92F3
:10007000AE3DB107D9F721E0AEEDB0E001C01D9271
:10008000AE3CB207E1F70E945E040C9423090C9485
:1000900000002F923F92D10180E090E008C01496BA
:1000A0002C911497FC01E052FF4F20830196803180
:1000B0009105ACF380E090E00CC01296ED91FC91BC
:1000C0001397E80FF91F2081FC01E051FF4F2083B7
:1000D00001962D913C9111978217930774F3149612
:1000E0008C91F901E051FF4F80833F902F9008954C
:1000F0008FEF9FEF9093C1018093C0010FC09C01CF
:100100002F5F3F4FF901E052FF4F4081FC01E05269
:10011000FF4F40833093C1012093C0018091C00103
:100120009091C101873C910554F3089580E090E0DF
:1001300009C0FC01E052FF4F2081FC01E255FE4F57
:100140002083019680319105A4F3089585BB82B385
:100150008B7F82BB82B3877F82BB82B3806482BB8A
:10016000000082B38F7B82BB8DEE92E00197F1F7A6
:1001700000C00000089585BB82B3846082BB82B357
:10018000877F82BB82B3806482BB000082B38F7B97
:1001900082BB89EF90E00197F1F700C0000008955D
:1001A0008FEF81BB84BB87E893E10197F1F700C033
:1001B000000088E30E94A6008CE00E94A60086E072
:1001C0000E94A60081E00E94A60080E80E94A6008E
:1001D00008950F931F93CF93DF938C01C0E0D0E07D
:1001E00003C00E94BB002196F801EC0FFD1F808127
:1001F0008111F7CFDF91CF911F910F91089581E089
:100200000E94A60080E80E94A6000895CF93DF9385
:10021000EC0180E80E94A600CE010E94E900DF9177
:10022000CF9108952F923F92EF92FF920F931F93D9
:10023000CF93DF9300D000D01F92CDB7DEB79C8361
:100240008B837A83698380E28D83CE0101961C01C2
:100250000E944900E980FA8092E1E90EF11C00E079
:1002600010E012C00E9478000E9496006DED70E0D0
:100270008EEA91E00E94060183ED90E30197F1F789
:1002800000C000000F5F1F4F0E151F055CF30F909D
:100290000F900F900F900F90DF91CF911F910F91C2
:1002A000FF90EF903F902F900895CF92DF92EF92C2
:1002B000FF920F931F93CF93DF93CDB7DEB7CB554C
:1002C000D1090FB6F894DEBF0FBECDBF7C018B0104
:1002D0006A0185E0E8E7F0E0DE01119601900D92F9
:1002E0008A95E1F784E595E69F838E838AE390E023
:1002F0009987888785E0EDE7F0E0DE011A960190A6
:100300000D928A95E1F789E0E2E8F0E0DE01579688
:1003100001900D928A95E1F78AE0EBE8F0E0DE01CA
:10032000909601900D928A95E1F78AE0E5E9F0E078
:10033000DE019A9601900D928A95E1F784E1E0E65C
:10034000F0E0DE01D49601900D928A95E1F784E108
:10035000E0E6F0E0DE01A85BBF4F01900D928A95C8
:10036000E1F7FF92EF9285E790E09F938F93CE01A4
:100370000F969F938F930E9439060F900F900F90C6
:100380000F900F900F904AE0E416F1041CF480E205
:10039000888B898B54E6E516F10414F480E2898B8E
:1003A00080E090E00FC0E1E0F0E0EC0FFD1FE80F0F
:1003B000F91F2081E4E3F0E0EC0FFD1FE80FF91FC7
:1003C000208301968430910574F380E090E011C0A1
:1003D000FC013496AFE0B0E0AC0FBD1FA80FB91F11
:1003E0002C9144E350E04C0F5D1FE40FF51F208378
:1003F00001968330910564F31F930F9385E790E096
:100400009F938F93CE0143969F938F930E943906BB
:100410000F900F900F900F900F900F900A301105D2
:100420001CF480E28C8B8D8B0436110514F480E271
:100430008D8B80E090E011C0FC013996A6E0B0E021
:10044000AC0FBD1FA80FB91F2C9144E350E04C0F17
:100450005D1FE40FF51F208301968330910564F33F
:1004600080E090E011C0FC013C96A3E1B0E0AC0F4D
:10047000BD1FA80FB91F2C9144E350E04C0F5D1F26
:10048000E40FF51F208301968330910564F380E02B
:1004900090E00FC0EAE0F0E0EC0FFD1FE80FF91F5D
:1004A0002081E8E4F0E0EC0FFD1FE80FF91F208346
:1004B00001968430910574F351E0C516D104C9F456
:1004C00012C0FC013496A0E2B0E0AC0FBD1FA80F33
:1004D000B91F2C9148E450E04C0F5D1FE40FF51F4D
:1004E0002083019602C080E090E0893091054CF3B2
:1004F00032C004361105ACF480E090E029C0FC0164
:100500003496AAE2B0E0AC0FBD1FA80FB91F2C9122
:1005100048E450E04C0F5D1FE40FF51F2083019667
:1005200002C080E090E0893091054CF314C0FC01DA
:100530003496A7E1B0E0AC0FBD1FA80FB91F2C91F6
:1005400048E450E04C0F5D1FE40FF51F2083019637
:100550008830910564F35AE0E516F1041CF485E255
:1005600089AF09C084E6E816F1041CF485E28AAF7D
:1005700002C085E28BAF0A3011052CF483E4229689
:100580008FAF22970CC0043611052CF483E4239618
:100590008FAF239704C083E424968FAF2497809174
:1005A000A8019091A901E816F90671F48091C201A1
:1005B0009091C3010817190739F48091C4019091F3
:1005C000C501C816D906D9F080E80E94A600CE0160
:1005D000C4960E94E90080EC0E94A600CE01885BD0
:1005E0009F4F0E94E900F092A901E092A8011093A8
:1005F000C3010093C201D092C501C092C401C55A83
:10060000DF4F0FB6F894DEBF0FBECDBFDF91CF91A5
:100610001F910F91FF90EF90DF90CF9008959093EE
:10062000BF018093BE017093DF006093DE008130D4
:10063000910539F488B38E7F88BB88B3826088BB0C
:100640000FC0029739F488B3816088BB88B38D7F6F
:1006500088BB06C088B38E7F88BB88B38D7F88BB7C
:100660006F3F710514F06FEF70E06CBF089580EE7E
:1006700087B986B1806886B986B1806486B93699B3
:10068000FECF86B1806186B965B170E080E090E010
:100690000E94400523E333E343E250E40E949604C2
:1006A0000E940805CB01089581EE87B986B1806864
:1006B00086B986B1806486B93699FECF86B18061ED
:1006C00086B985B190E00895B29B03C080E090E0C8
:1006D000089581E090E00895CF93DF9381E090E06A
:1006E0009093CD018093CC0160E070E080E090E0D9
:1006F0000E940F0318C0C091CC01D091CD010E947F
:100700005403AE01BC0180E090E00E94550160E01E
:1007100070E080E090E00E940F0383EC99E0019785
:10072000F1F700C000000E946403892B21F79FEBC2
:1007300027E289E0915020408040E1F700C00000AE
:100740006091DE007091DF008091BE019091BF0149
:100750000E940F031092CD011092CC016091AA016A
:100760007091AB0140E050E08091CA019091CB01C3
:100770000E945501DF91CF9108951F920F920FB6FD
:100780000F9211242F933F934F935F936F937F9317
:100790008F939F93AF93BF93EF93FF930E946C034C
:1007A000FF91EF91BF91AF919F918F917F916F9149
:1007B0005F914F913F912F910F900FBE0F901F901F
:1007C0001895CF93DF9360E070E080E090E00E94A6
:1007D0000F0317C00E946403EC010E945403AE0192
:1007E000BC0180E090E00E94550160E070E080E094
:1007F00090E00E940F0383EC99E00197F1F700C0AD
:1008000000000E9454038436910524F79FE32DE0F5
:1008100083E0915020408040E1F700C000006091EB
:10082000DE007091DF008091BE019091BF010E94B7
:100830000F03DF91CF9108950E94D00087EA91E6DF
:100840000197F1F700C000006AE270E08FE990E0E4
:100850000E94120187EA91E60197F1F700C00000BB
:100860000E94FF0063E170E08AEC90E00E941201B8
:1008700087EA91E60197F1F700C000000E94FF00AF
:1008800062E070E081E090E00E940F0387B3816036
:1008900087BB87B3826087BB81E683BF87B38860ED
:1008A00087BB87B38B7F87BB88B3846088BB80E2BC
:1008B0008BBF84B78F7B84BF789408950E941C04FB
:1008C0000E9437039093CB018093CA010E94540386
:1008D0009093AB018093AA018436910514F00E9495
:1008E000E1036091CA017091CB01072E000C880BC7
:1008F000990B0E94400523E333E343E250E40E9456
:10090000CC050E94080581E090E00E940F03409111
:10091000CC015091CD016091AA017091AB01809101
:10092000CA019091CB010E945501CACF0E94AA042E
:100930000C9492050E948B0558F00E94840540F0AB
:1009400029F45F3F29F00C947B0551110C94C605E6
:100950000C9481050E94A30568F39923B1F35523F4
:1009600091F3951B550BBB27AA27621773078407C2
:1009700038F09F5F5F4F220F331F441FAA1FA9F358
:1009800035D00E2E3AF0E0E832D091505040E69546
:10099000001CCAF72BD0FE2F29D0660F771F881FA7
:1009A000BB1F261737074807AB07B0E809F0BB0B9A
:1009B000802DBF01FF2793585F4F3AF09E3F5105AE
:1009C00078F00C947B050C94C6055F3FE4F3983EE9
:1009D000D4F3869577956795B795F7959F5FC9F797
:1009E000880F911D9695879597F90895E1E0660F18
:1009F000771F881FBB1F621773078407BA0720F091
:100A0000621B730B840BBA0BEE1F88F7E0950895F9
:100A10000E940F056894B1110C94C60508950E94B8
:100A2000AB0588F09F5798F0B92F9927B751B0F0D0
:100A3000E1F0660F771F881F991F1AF0BA95C9F762
:100A400014C0B13091F00E94C505B1E008950C9436
:100A5000C505672F782F8827B85F39F0B93FCCF3E9
:100A6000869577956795B395D9F73EF490958095DF
:100A7000709561957F4F8F4F9F4F0895E89409C0FF
:100A800097FB3EF490958095709561957F4F8F4FC1
:100A90009F4F9923A9F0F92F96E9BB279395F695D7
:100AA000879577956795B795F111F8CFFAF4BB0F55
:100AB00011F460FF1BC06F5F7F4F8F4F9F4F16C0B9
:100AC000882311F096E911C0772321F09EE8872F43
:100AD000762F05C0662371F096E8862F70E060E0FF
:100AE0002AF09A95660F771F881FDAF7880F969578
:100AF000879597F9089597F99F6780E870E060E01F
:100B000008959FEF80EC089500240A9416161706A6
:100B100018060906089500240A94121613061406EE
:100B200005060895092E0394000C11F4882352F051
:100B3000BB0F40F4BF2B11F460FF04C06F5F7F4F09
:100B40008F4F9F4F089557FD9058440F551F59F0F0
:100B50005F3F71F04795880F97FB991F61F09F3FAA
:100B600079F087950895121613061406551FF2CFD3
:100B70004695F1DF08C0161617061806991FF1CF23
:100B800086957105610508940895E894BB2766274A
:100B90007727CB0197F908950E94DF050C94920501
:100BA0000E94840538F00E948B0520F0952311F0F7
:100BB0000C947B050C94810511240C94C6050E94AD
:100BC000A30570F3959FC1F3950F50E0551F629FE9
:100BD000F001729FBB27F00DB11D639FAA27F00D96
:100BE000B11DAA1F649F6627B00DA11D661F829FBD
:100BF0002227B00DA11D621F739FB00DA11D621FA2
:100C0000839FA00D611D221F749F3327A00D611DBE
:100C1000231F849F600D211D822F762F6A2F1124A0
:100C20009F5750409AF0F1F088234AF0EE0FFF1FD3
:100C3000BB1F661F771F881F91505040A9F79E3F2A
:100C4000510580F00C947B050C94C6055F3FE4F3DE
:100C5000983ED4F3869577956795B795F795E79580
:100C60009F5FC1F7FE2B880F911D9695879597F989
:100C70000895AEE0B0E0EFE3F6E00C94FA080D89D9
:100C80001E8986E08C831A8309838FEF9FE79E83FA
:100C90008D83AE01475E5F4F6F89788DCE010196DF
:100CA0000E945B06EF81F885E00FF11F10822E96FF
:100CB000E4E00C941609ABE0B0E0E1E6F6E00C9459
:100CC000EC086C017B018A01FC011782168283818A
:100CD00081FFCCC1CE0101963C01F6019381F70161
:100CE00093FD859193FF81917F01882309F4BAC117
:100CF000853239F493FD859193FF81917F0185328F
:100D000029F4B60190E00E945208E7CF912C212CE3
:100D1000312CFFE1F315D8F08B3279F038F48032C2
:100D200079F08332A1F4232D20611DC08D3261F052
:100D3000803369F4232D216016C0832D8260382E04
:100D4000E32DE4603E2E2AC0F32DF8601DC037FC71
:100D50002DC020ED280F2A3040F08E32B9F436FC39
:100D600081C1232D2064322E19C036FE06C08AE0D0
:100D7000989E200D1124922E11C0EAE02E9E200D87
:100D80001124222EF32DF0623F2E08C08C3621F460
:100D9000832D8068382E02C0883641F4F70193FD18
:100DA000859193FF81917F018111B3CF982F9F7D12
:100DB0009554933028F40C5F1F4F9FE399830DC027
:100DC000833631F0833771F0833509F059C021C083
:100DD000F801808189830E5F1F4F88248394912CB2
:100DE000530113C02801F2E04F0E511CF801A080FE
:100DF000B18036FE03C0692D70E002C06FEF7FEF57
:100E0000C5010E9447084C018201F32DFF773F2E58
:100E100016C0280122E0420E511CF801A080B180CA
:100E200036FE03C0692D70E002C06FEF7FEFC50191
:100E30000E943C084C01F32DF0683F2E820133FCE8
:100E40001BC0822D90E088169906B0F4B60180E2AE
:100E500090E00E9452082A94F4CFF50137FC859166
:100E600037FE81915F01B60190E00E945208211087
:100E70002A9421E0821A91088114910471F7E8C044
:100E8000843611F0893641F5F80137FE07C06081DC
:100E90007181828193810C5F1F4F08C060817181D5
:100EA000072E000C880B990B0E5F1F4FF32DFF765A
:100EB0003F2E97FF09C090958095709561957F4F63
:100EC0008F4F9F4FF0683F2E2AE030E0A3010E9431
:100ED0008E08882E861845C0853731F4232D2F7E45
:100EE000B22E2AE030E025C0932D997FB92E8F369F
:100EF000C1F018F4883579F0B5C0803719F088371B
:100F000021F0B0C0E92FE061BE2EB4FE0DC0FB2D74
:100F1000F460BF2E09C034FE0AC0292F2660B22E0D
:100F200006C028E030E005C020E130E002C020E14A
:100F300032E0F801B7FE07C0608171818281938140
:100F40000C5F1F4F06C06081718180E090E00E5FF2
:100F50001F4FA3010E948E08882E8618FB2DFF7755
:100F60003F2E36FE0DC0232D2E7FA22E891458F45D
:100F700034FE0BC032FC09C0832D8E7EA82E05C026
:100F8000B82CA32C03C0B82C01C0B92CA4FE0FC0F0
:100F9000FE01E80DF11D8081803321F49A2D997EA8
:100FA000A92E09C0A2FE06C0B394B39404C08A2D32
:100FB000867809F0B394A3FC11C0A0FE06C0B21459
:100FC00088F4280C922C9B180EC0B21460F4B60161
:100FD00080E290E00E945208B394F7CFB21418F464
:100FE0002B1802C0982C212CA4FE10C0B60180E35F
:100FF00090E00E945208A2FE17C0A1FC03C088E73F
:1010000090E002C088E590E0B6010CC08A2D867899
:1010100059F0A1FE02C08BE201C080E2A7FC8DE284
:10102000B60190E00E945208891438F4B60180E3BA
:1010300090E00E9452089A94F7CF8A94F301E80D49
:10104000F11D8081B60190E00E9452088110F5CF19
:10105000222009F442CEB60180E290E00E945208BC
:101060002A94F6CFF6018681978102C08FEF9FEF19
:101070002B96E2E10C940809FC0105906150704048
:101080000110D8F7809590958E0F9F1F0895FC0151
:101090006150704001900110D8F7809590958E0FA7
:1010A0009F1F08950F931F93CF93DF93FB0123811D
:1010B00021FD03C08FEF9FEF2CC022FF16C0468199
:1010C0005781248135814217530744F4A081B181AF
:1010D0009D012F5F3F4F318320838C932681378181
:1010E0002F5F3F4F3783268314C08B01EC01FB0138
:1010F0000084F185E02D0995892BE1F6D80116963B
:101100008D919C911797019617969C938E931697A5
:10111000CE01DF91CF911F910F910895FA01AA2777
:10112000283051F1203181F1E8946F936E7F6E5F2A
:101130007F4F8F4F9F4FAF4FB1E03ED0B4E03CD0D8
:10114000670F781F891F9A1FA11D680F791F8A1FBB
:10115000911DA11D6A0F711D811D911DA11D20D022
:1011600009F468943F912AE0269F11243019305DDC
:101170003193DEF6CF010895462F4770405D4193CD
:10118000B3E00FD0C9F7F6CF462F4F70405D4A331A
:1011900018F0495D31FD4052419302D0A9F7EACFE2
:1011A000B4E0A6959795879577956795BA95C9F711
:1011B00000976105710508959B01AC010A2E069404
:1011C0005795479537952795BA95C9F7620F731FBD
:1011D000841F951FA01D08952F923F924F925F92FA
:1011E0006F927F928F929F92AF92BF92CF92DF9237
:1011F000EF92FF920F931F93CF93DF93CDB7DEB79C
:10120000CA1BDB0B0FB6F894DEBF0FBECDBF09942F
:101210002A88398848885F846E847D848C849B8486
:10122000AA84B984C884DF80EE80FD800C811B8194
:10123000AA81B981CE0FD11D0FB6F894DEBF0FBEC3
:0A124000CDBFED010895F894FFCF33
:10124A002020202020202020202020202020202094
:10125A0020202020002564005370643A004D6F74EA
:10126A003A002052756E6E696E6700204F7665727D
:10127A006C6F616400204F76657254656D7000442E
:10128A006576656C6F7065642062792042696D735A
:10129A006172612053616E6461727577616E202D8F
:1012AA002045475431393531370053797374656DA8
:0E12BA00206973207374617274696E672E0070
:00000001FF
